:020000040800F2
:1000000000500020D1310008412C0008432C00088A
:10001000452C0008472C0008492C0008000000006F
:100020000000000000000000000000004B2C000851
:100030004D2C0008000000004F2C0008512C000837
:100040001932000819320008193200081932000864
:100050001932000819320008193200081932000854
:100060001932000819320008193200081932000844
:100070001932000819320008193200081932000834
:100080001932000819320008193200081932000824
:10009000612C0008193200081932000819320008D2
:1000A0001932000819320008193200081932000804
:1000B0006D2C0008193200081932000819320008A6
:1000C00019320008193200081932000819320008E4
:1000D00019320008193200081932000819320008D4
:1000E0001932000819320008193200080000000017
:1000F0000000000000000000000000000000000000
:0C01000000000000000000005FF808F1A3
:10010C0010B5054C237833B9044B13B10448AFF345
:10011C0000800123237010BD0001002000000000AE
:10012C006432000808B5034B1BB103490348AFF315
:10013C00008008BD000000000401002064320008AB
:10014C0038B50E4B054618784FF47A73B3FBF0F3C1
:10015C000B4A1068B0FBF3F000F09EF8044658B957
:10016C000F2D09D8024629464FF0FF3000F054F805
:10017C00044B20461D6038BD012038BD0000002016
:10018C00C800002004000020074A08B513680320AB
:10019C0043F01003136000F02DF80020FFF7D0FFA0
:1001AC0002F0ACFC002008BD00200240034A044BC6
:1001BC0011681B780B441360704700BF4801002086
:1001CC0000000020014B1868704700BF4801002058
:1001DC0038B50446FFF7F6FF0546631C1EBF044BFB
:1001EC001B78E418FFF7EEFF401B8442FAD838BDA9
:1001FC0000000020074A0002D36800F4E06023F4FA
:10020C00E0631B041B0C43F0BF6343F40033034354
:10021C00D360704700ED00E0174B30B5DC68C4F3D9
:10022C000224C4F10703251D042B28BF0423062D2B
:10023C004FF0010598BF002405FA03F303F1FF33D7
:10024C0088BF033C1940A14005FA04F4013C22404C
:10025C00002842EA01024FEA0212AFBF00F16040EF
:10026C00064B00F00F00D2B2A5BFD2B200F5614030
:10027C001A5480F8002330BD00ED00E014ED00E0CE
:10028C000123420900F01F0003FA00F0014B43F870
:10029C002200704700E100E00138B0F1807F0AD203
:1002AC00F021064B064A586082F8231000200722E2
:1002BC0098601A6070470120704700BF10E000E0A2
:1002CC0000ED00E0044B04281A680CBF42F0040255
:1002DC0022F004021A60704710E000E0704708B585
:1002EC00FFF7FCFF08BD00002DE9F74F0022164672
:1002FC00654BDFF8A4E1DFF8A4C14FF001080C68EE
:10030C0008FA06F808EA0404A0457FD14D68122DBE
:10031C0000F0AF8000F28880022D00F0A7807CD81E
:10032C00002D00F08E80012D00F09E804FF00F0903
:10033C00FF2C93BF824606F18045083DD0F800B0F3
:10034C0092BFB500D0F804B0AD0009FA05F82BEA5D
:10035C00080802FA05F588BF00F1040A48EA050509
:10036C00CAF80050D1F804A01AF0805F4ED0474D67
:10037C00464FAD6926F0030845F00105BD61BD6926
:10038C0008F1804805F00105019508F5803806F064
:10039C00030B019D4FEA8B0BD8F8085009FA0BF9A7
:1003AC0025EA09093A4DA84268D005F58065A842AE
:1003BC0066D005F58065A84264D005F58065A84235
:1003CC000CBF0325042505FA0BF545EA0905C8F809
:1003DC0008501D681AF4803F14BF2543A5431D60C7
:1003EC005D681AF4003F14BF2543A5435D609D680A
:1003FC001AF4801F14BF2543A5439D60DD681AF4D1
:10040C00001F14BF2C4325EA0404DC600136102EB7
:10041C007FF473AF03B0BDE8F08F032D22D0112D04
:10042C0084D1CA68043281E71A4FBD4209D012D870
:10043C00DFF86C904D4504D009F580394D457FF4BB
:10044C0075AF8A68C2B1012A0CBFC0F81080C0F821
:10045C00148008226AE77545F3D06545F1D0DFF8C2
:10046C004490EBE7002261E7CA685FE7CA6808328C
:10047C005CE7CA680C3259E7042257E70025A2E76B
:10048C000125A0E702259EE7000401400010024070
:10049C000008014000002110000031100000321053
:1004AC0000001110000022100AB10161704709040C
:1004BC00FBE7C3685940C16070472DE9F041044621
:1004CC0086B0002860D090F8293403F0FF021BB9E5
:1004DC0080F8282402F006FC254603236E4655F8C6
:1004EC00100B84F8293401F015FA0FCD0FC62B68C8
:1004FC0004F10408336098E80E00206801F0FAF962
:10050C000021206801F010FA002123462246012622
:10051C00084604F1100582F82810918601310F2944
:10052C0082F8296082F82B009063D063106402F18A
:10053C002002F0D10022174683F828229A86013235
:10054C000F2A83F8297283F82B72C3F83872C3F818
:10055C003C72C3F8407203F12003EDD16E460FCD0F
:10056C000FC62B68336098E80E00206801F0DEF9A6
:10057C00012384F82470206884F8293401F0AEFC3F
:10058C00002006B0BDE8F0810120FAE790F828348D
:10059C0010B5012B04460ED0012180F8281402F06E
:1005AC00B8FC206801F098FC206801F0AAF9002042
:1005BC0084F8280410BD022010BD90F8282410B532
:1005CC00012A04460BD0012280F8282484F8241038
:1005DC00006801F07BFC002084F8280410BD022088
:1005EC0010BD38B5044648B2002801F07F05B5BFF0
:1005FC0004EB451104EB4111283101F50A71C00FD0
:10060C000D704870CB7094F828340A61012B09D016
:10061C000123206884F8283401F0A4F9002084F820
:10062C00280438BD022038BD4BB2002B01F07F02EC
:10063C00B5BF00EB421100EB4111283101F50A71F5
:10064C00DB0F10B50A704B7090F828340446012B60
:10065C0009D0012380F82834006801F0F5FA002055
:10066C0084F8280410BD022010BD70B5002601F0DE
:10067C007F014D01441984F8281205F50A710144D3
:10068C00C4F83C22C4F84032C4F8446284F82962AD
:10069C00006801F03DFC304670BD01F07F0170B583
:1006AC004D01441923640026012384F8281005F118
:1006BC0028010144E263666484F82930006801F083
:1006CC0027FC304670BD00002DE9F3470446006856
:1006DC0001F006FC000400F19880206801F000FC99
:1006EC0041050FD522682046B2F8443023F48063CC
:1006FC001B041B0CA2F8443002F02BFB00212046FB
:10070C00FFF75BFF206801F0EBFB470408D522687C
:10071C00B2F8443023F480431B041B0CA2F8443081
:10072C00206801F0DDFB860408D52268B2F844305D
:10073C0023F400531B041B0CA2F84430206801F076
:10074C00CFFBC5041CD522682046B2F8403023F0FC
:10075C0004031B041B0CA2F84030B2F8403023F009
:10076C0008031B041B0CA2F8403002F00FFB22689C
:10077C00B2F8443023F480531B041B0CA2F8443011
:10078C00206801F0ADFB00051DD52068B0F84030A5
:10079C009BB243F00803A0F84030B0F8443023F487
:1007AC0000631B041B0CA0F84430B0F840309BB223
:1007BC0043F00403A0F8403001F092FBC10402D4D2
:1007CC00204602F0D3FA206801F08AFB82050BD593
:1007DC0022682046B2F8443023F400731B041B0C2F
:1007EC00A2F8443002F0B1FA206801F079FBC3059D
:1007FC0008D52268B2F8443023F480731B041B0C18
:10080C00A2F8443002B0BDE8F0870023C84FDFF8EF
:10081C002483DFF82493ADF80430ADF8063020685B
:10082C00B0F844309BB2ADF804301B047FF555AFE3
:10083C00BDF8045015F00F0540F0AB80BDF8041066
:10084C00038811F010019BB226D13B400380B0F815
:10085C00503094F828209BB203EBC20300EB43000A
:10086C00D0F80434E26BC3F3090363641344E36309
:10087C00204602F063FA94F82430002BCFD0226C7F
:10088C00002ACCD194F82430216843F08003A1F8DD
:10089C004C3084F82420C2E7ADF80630BDF80630A1
:1008AC001A051FD5B0F8503094F828229BB203EBF0
:1008BC00C20300EB4303D3F80C34B4F82C22C3F37B
:1008CC000903C4F8443204F22C4101F021FC2268E3
:1008DC002046138823F070031B051B0D138002F0B8
:1008EC001FFA9CE7BDF806301B0498D5038823F04B
:1008FC0070031B051B0D0380B0F8503094F82822B0
:10090C009BB203EBC20300EB4303D3F80C34C3F3E9
:10091C000903C4F8443263B1B4F82C22D4F83C1265
:10092C0001F0F6FBD4F83C32D4F844221344C4F85A
:10093C003C320021204602F0F9F92268D4F83852F2
:10094C00B2F850103E2D89B201F1060102F580601B
:10095C0017D9C5F34F13EE0604BF03F1FF339BB257
:10096C0049EA83239BB240F8113013889BB203EA07
:10097C00080383F4405343F4004343F08003138093
:10098C004DE7C5F34F03ED0744BF01339BB29B0208
:10099C00E8E730F825309BB2ADF80630BDF80630EC
:1009AC0019043FD530F825304FEA451A23F070036F
:1009BC001B051B0D20F8253004EB0A0191F832328F
:1009CC00002B74D1B0F8503091F828229BB206332A
:1009DC0003EBC20300EB4303D3F80064C6F3090630
:1009EC0036B1B1F82C223346D1F83C1201F090FB11
:1009FC0004EB0A01D1F84432D1F83C223344C1F85B
:100A0C004432D1F840323244C1F83C2223B1D1F8FF
:100A1C003802864280F08680A2449AF8281220463A
:100A2C0002F084F9BDF806301A067FF5F8AE20689E
:100A3C006E0130F82530A1199BB23B4020F82530CF
:100A4C0091F832300235002B78D1B0F8503091F853
:100A5C0028209BB2023303EBC20300EB4303D3F811
:100A6C00003404EB4515C3F309036B601BB18A8D8D
:100A7C00C96B01F03BFA22682644B2F8503096F864
:100A8C0028109BB2023303EBC10302EB4303D3F8F0
:100A9C000024F36BC2F3090272641A44336CF263E0
:100AAC002046002B40F0858002F048F9B7E691F81B
:100ABC00283230F82320DB0012F4804FB0F850209D
:100ACC0092B221D00232134400EB4303D3F80064FA
:100ADC00C6F3090636B13346B1F82E22D1F83C12D2
:100AEC0001F016FB04EB0A0393F82812226832F883
:100AFC00213023F0F0031B051B0D43F4004343F09E
:100B0C00C00322F8213073E70632134400EB430391
:100B1C00D3F80064C6F30906002EE3D03346B1F8CF
:100B2C003022DBE791F828122046FFF79EFD79E78B
:100B3C000F8FFFFF8FBFFFFF0080FFFF91F8283062
:100B4C0030F82320DB0012F0400FB0F8502092B2A6
:100B5C0020D00232134400EB4303D3F8003404EBEF
:100B6C004515C3F309036B601BB1CA8DC96B01F04A
:100B7C00BDF9A31993F82810226832F8213023F01C
:100B8C00F0031B051B0D43F4404343F0800322F894
:100B9C00213070E70632134400EB4303D3F80034E2
:100BAC0004EB4515C3F309036B60002BE1D00A8EEF
:100BBC00DCE7FFF772FD32E6012238B54BB2002BB1
:100BCC0001F07F05B5BF00EB451100EB4111283159
:100BDC0001F50A71DB0FEDB28A700D704B7090F855
:100BEC002834044693420ED080F82824006801F083
:100BFC00F9F825B904F22C41206801F075F90020B0
:100C0C0084F8280438BD022038BD38B500244BB216
:100C1C00002B01F07F02B5BF00EB421100EB41113C
:100C2C00283101F50A71DB0F8C700A704B7090F84B
:100C3C0028340546012B09D0012380F8283400689C
:100C4C0001F002F985F82844204638BD022038BD51
:100C5C0011F0800F1BBF01F07F0100EB411000EB86
:100C6C004110283008BF00F50A701AB982728380CF
:100C7C00002070470122C3801B0C82720381F7E7AE
:100C8C0003682DE9F341DB07054610D42B689F0759
:100C9C005ED42B68190700F195802B685A0700F178
:100CAC00BF80EA69002A40F02D81002014E0904CAE
:100CBC00636803F00C03042B07D0636803F00C0388
:100CCC00082B0CD16368DE0309D523689C03DDD5A2
:100CDC006B68002BDAD1012002B0BDE8F0816B68A3
:100CEC00B3F5803F10D1236843F480332360FFF7C2
:100CFC0069FA064623689803C8D4FFF763FA801B89
:100D0C006428F7D90320E7E79BB9236823F48033E1
:100D1C002360236823F480232360FFF753FA0646ED
:100D2C0023689903B2D5FFF74DFA801B6428F7D9D5
:100D3C00E8E7B3F5A02F236803D143F480232360A5
:100D4C00D1E723F480332360236823F48023CDE799
:100D5C00674C636813F00C0F07D0636803F00C0347
:100D6C00082B10D16368DA030DD423689B0702D5D6
:100D7C002B69012BAFD123686A6923F0F80343EA8E
:100D8C00C203236085E72A695A4B6AB101221A60B3
:100D9C00FFF718FA064623689F07ECD4FFF712FA00
:100DAC00801B0228F7D9ADE71A60FFF70BFA06464D
:100DBC00236898077FF56DAFFFF704FA801B0228B4
:100DCC00F6D99FE7AA694A4C4B4BDAB101221A605B
:100DDC00FFF7F8F90646636A9B070DD54FF4FA52F4
:100DEC00464B1B68B3FBF2F3019300BF019B5A1EE9
:100DFC000192002BF9D150E7FFF7E4F9801B022890
:100E0C00E9D97FE71A60FFF7DDF90646636A9F07A9
:100E1C007FF543AFFFF7D6F9801B0228F6D971E7AF
:100E2C00334CE369D80024D40127E36943F08053A1
:100E3C00E361E36903F080530093009B304E336809
:100E4C00D90518D5EB68012B26D1236A43F0010391
:100E5C002362FFF7B7F941F288368046236A9B0775
:100E6C003FD5002F3FF41DAFE36923F08053E361BE
:100E7C0017E70027E2E7336843F480733360FFF72A
:100E8C00A1F980463368DA05DCD4FFF79BF9A0EBB7
:100E9C0008006428F6D935E7ABB9236A41F28838E3
:100EAC0023F001032362236A23F004032362FFF778
:100EBC0089F90646236A9807D3D5FFF783F9801B77
:100ECC004045F7D91EE7052B236A03D143F00403F1
:100EDC002362BAE723F001032362236A23F004039D
:100EEC00B6E7FFF76FF9A0EB0800B042B6D909E7F7
:100EFC00001002400000424280044242C800002020
:100F0C0000700040224C636803F00C03082B3FF484
:100F1C00E2AE00231F4E022A33602BD1FFF752F9A9
:100F2C000746236899011FD42B6AB3F5803F05D17E
:100F3C006268A96822F400320A436260696A6268D6
:100F4C000B4322F474121343636001233360FFF7E5
:100F5C0039F9054623689A013FF5A7AEFFF732F938
:100F6C00401B0228F6D9CDE6FFF72CF9C01B02284E
:100F7C00D7D9C7E6FFF726F9054623689B017FF50D
:100F8C0094AEFFF71FF9401B0228F6D9BAE600BF52
:100F9C00001002406000424230B5194B87B002ACE1
:100FAC0003F11005224618685968083303C2AB4296
:100FBC001446F7D101238DF80430022311498DF822
:100FCC0005304B6803F00C02082A17D1C3F3834297
:100FDC0006A80244DB0312F8102C0CD54B680A4807
:100FEC00C3F34043504306AA134413F8143CB0FB1C
:100FFC00F3F007B030BD05485043FAE70248F8E774
:10100C007C3200080010024000127A0000093D00FA
:10101C004D4A2DE9F0411368054603F007038B4256
:10102C000E4628D32A68910732D4D20738D4464AC0
:10103C00136803F007039E4273D32A68434C12F0E3
:10104C00040F79D1130706D563682A6923F460531A
:10105C0043EAC2036360FFF79FFF63683C4AC3F334
:10106C000313D35CD8403B4B18600020FFF768F8A3
:10107C000020BDE8F081136823F007030B431360D5
:10108C00136803F007039942CCD00120BDE8F0812E
:10109C002E49A8684B6823F0F00303434B60C4E768
:1010AC006A682A4C012A23681CD113F4003FECD047
:1010BC00636841F2883823F0030313436360FFF73E
:1010CC0081F86B680746012B14D1636803F00C039D
:1010DC00042BACD0FFF776F8C01B4045F5D90320A4
:1010EC00BDE8F081022A02D113F0007FDFE713F094
:1010FC00020FDCE7022B0FD1636803F00C03082B03
:10110C0095D0FFF75FF8C01B4045F5D9E7E7FFF72F
:10111C0059F8C01B4045E2D8636813F00C0FF6D1A8
:10112C0085E7136823F0070333431360136803F058
:10113C0007039E42A9D180E76368E96823F4E06362
:10114C000B4363607EE700BF0020024000100240AA
:10115C0099320008C8000020014B1868704700BF86
:10116C00C8000020044B054A5B68C3F30223D35C20
:10117C00034A1068D840704700100240A93200089A
:10118C00C8000020044B054A5B68C3F3C223D35C40
:10119C00034A1068D840704700100240A93200087A
:1011AC00C800002003682DE9F341D907054620D576
:1011BC00354CE369DA0032D40127E36943F08053FC
:1011CC00E361E36903F080530193019B2F4E336875
:1011DC00DB0526D5236A13F4407336D1236A6A687B
:1011EC0023F44073134323621FB1E36923F080534C
:1011FC00E3612868830706D5234AA968536823F45A
:10120C0040430B43536010F010001BD01E4AE9689A
:10121C005368002023F480030B43536012E0002733
:10122C00D4E7336843F480733360FEF7CBFF80461A
:10123C003368D805CED4FEF7C5FFA0EB08006428B0
:10124C00F6D9032002B0BDE8F0816A6802F440725E
:10125C009342C3D001200E4A236A1060002023F46D
:10126C00407110602162D907B8D5FEF7ABFF41F28F
:10127C0088380646236A9A07B0D4FEF7A3FF801B72
:10128C004045F7D9DDE700BF001002400070004078
:10129C004004424203680020DA6842F00102DA603E
:1012AC001A6842F001021A60704790F83C3070B531
:1012BC00012B4FF002031CD0012280F83D30036853
:1012CC0080F83C209A6822F47F4222F077029A60E0
:1012DC000A68402A79D019D8102A00F093800AD8CD
:1012EC00002A00F08980012380F83D30002380F82B
:1012FC003C30184670BD202A00F08A80302AF2D18A
:10130C009A6822F0700242F0370236E0702A36D02A
:10131C001BD8502A42D0602AE5D11C6A4D6824F0B3
:10132C001004CE681C6299691A6A21F4704122F08B
:10133C00A00242EA051241EA063199611A629A68E2
:10134C0022F0700242F0670217E0B2F5805F11D014
:10135C00B2F5005FC7D18A684D689C68C9682A439A
:10136C0024F47F4442EA012222439A609A6842F4B0
:10137C00804202E09A6822F007029A60B3E78A681A
:10138C004D689C68C9682A4324F47F4442EA0122D0
:10139C0022439A609A6842F07702EEE74C68CE6876
:1013AC00196A1D6A21F00A0125F001051D629A696E
:1013BC00214322F0F00242EA06129A6119629A68FD
:1013CC0022F0700242F05702D7E74C68CE68196AD7
:1013DC001D6A21F00A0125F001051D629A6921435D
:1013EC0022F0F00242EA06129A6119629A6822F01F
:1013FC00700242F04702C0E79A6822F0700242F095
:10140C000702BAE79A6822F0700242F01702B4E7BA
:10141C009A6822F0700242F02702AEE770477047DC
:10142C0070477047036810B51A69044691070ED5CA
:10143C00DA6892070BD56FF002021A6101229B69E0
:10144C0002779B0777D0FFF7EAFF00232377236807
:10145C001A69500710D5DA6851070DD56FF00402E0
:10146C001A6102229B69227713F4407F204668D0D0
:10147C00FFF7D5FF0023237723681A6912070FD5CE
:10148C00DA6810070CD56FF008021A610422DB69C8
:10149C002277990720465AD0FFF7C1FF0023237704
:1014AC0023681A69D20610D5DA68D0060DD56FF00C
:1014BC0010021A610822DB69227713F4407F204660
:1014CC004BD0FFF7ACFF0023237723681A69D107B1
:1014DC0008D5DA68D20705D56FF0010220461A61EB
:1014EC0001F00CFA23681A69100608D5DA6811069F
:1014FC0005D56FF0800220461A6100F0AAF8236827
:10150C001A69520608D5DA68500605D56FF0400204
:10151C0020461A61FFF785FF23681A69910622D5C8
:10152C00DA6892061FD56FF020022046BDE8104005
:10153C001A6100F08DB8FFF771FF2046FFF770FFBE
:10154C0083E7FFF76BFF2046FFF76AFF92E7FFF791
:10155C0065FF2046FFF764FFA0E7FFF75FFF20461B
:10156C00FFF75EFFAFE710BD1A4A036890420AD03E
:10157C00B0F1804F07D0A2F59432904203D002F51F
:10158C008062904215D14A6823F070031343114ACC
:10159C0090420AD0B0F1804F07D0A2F5943290421D
:1015AC0003D002F58062904203D1CA6823F44073E1
:1015BC0013434A6923F08003134303608B68C362AF
:1015CC000B688362034B984204BF0B6903630123CE
:1015DC0043617047002C014010B50446A0B190F84F
:1015EC003D3003F0FF021BB980F83C2001F0DAFA21
:1015FC000223206884F83D30211DFFF7B5FF01233D
:10160C00002084F83D3010BD012010BD90F83C3016
:10161C0010B5012B4FF0020318D080F83D30036851
:10162C000C685A68496822F070025A605A68224362
:10163C005A609A6822F080029A609A680A439A600B
:10164C00012380F83D30002380F83C30184610BD53
:10165C00704770472DE9F0470568C2682B6901692E
:10166C0023F4405313432B618368EA680B434169AD
:10167C0022F4B05222F00C020B431343EB606B6963
:10168C00826923F4407313436B61404B81469D4246
:10169C004FF0190446D1FFF775FD04FB00F3D9F8A0
:1016AC0004604FF06408B600B3FBF6F3B3FBF8F339
:1016BC001E01FFF767FD6043D9F804309B00B0FBB7
:1016CC00F3F7FFF75FFD6043D9F804309B00B0FBE4
:1016DC00F3F3B3FBF8F308FB13731B013233B3FBC7
:1016EC00F8F303F0F007FFF74DFD6043D9F8042041
:1016FC009200B0FBF2FAFFF745FD6043D9F80430D5
:10170C009B00B0FBF3F3B3FBF8F308FB13A31B0133
:10171C003233B3FBF8F303F00F033B433344AB60BA
:10172C00BDE8F087FFF71EFD04FB00F3D9F8046059
:10173C004FF06408B600B3FBF6F3B3FBF8F31E01ED
:10174C00FFF710FD6043D9F804309B00B0FBF3F7B2
:10175C00FFF708FD6043D9F804309B00B0FBF3F3AE
:10176C00B3FBF8F308FB13731B013233B3FBF8F331
:10177C0003F0F007FFF7F6FC6043D9F80420920061
:10178C00B0FBF2FAFFF7EEFCB7E700BF0038014000
:10179C00F8B504460E4617461D4621680B6836EA16
:1017AC00030301D10020F8BD6B1CF7D095B9236859
:1017BC000320DA6822F4D072DA605A6922F001024E
:1017CC005A61202384F8393084F83A30002384F8A5
:1017DC003830F8BDFEF7F6FCC01B8542DDD2E6E7DB
:1017EC0010B5044640B390F8393003F0FF021BB932
:1017FC0080F8382001F0F2F92423226884F839307B
:10180C00D368204623F40053D360FFF723FF2368EB
:10181C0000201A6922F490421A615A6922F02A02B5
:10182C005A61DA6842F40052DA602023E06384F8EB
:10183C00393084F83A3010BD012010BD2DE9F0414B
:10184C001F4690F839300446202B0D4690464ED159
:10185C00002949D0002A47D090F83830012B46D0C7
:10186C00012380F838300023C363212380F83930FA
:10187C00FEF7A8FC0646A4F82480A4F82680E38C86
:10188C009BB26BB93B46324640212046FFF780FFA6
:10189C00A8B9202384F8380084F83930BDE8F081E9
:1018AC00E38C3246013B9BB2E384A3688021B3F501
:1018BC00805F20463B460ED1FFF76AFF10B1032034
:1018CC00BDE8F0812B882268C3F3080353602369B9
:1018DC0043B90235D3E7FFF75BFF0028EFD123684C
:1018EC002A785A600135CAE70120BDE8F081022050
:1018FC00BDE8F08184B001A880E80E0004B000209F
:10190C007047B0F840309BB243F43F43A0F84030EE
:10191C0000207047B0F8403023F474535B045B0C28
:10192C00A0F84030002070470020704784B010B5FC
:10193C0003AC84E80E00BDE8104000220123A0F89F
:10194C004030A0F84020A0F84420A0F85020B0F877
:10195C00403004B09BB243F43F43A0F840301046F3
:10196C007047000070B5CB780A78032B0FD8DFE8EE
:10197C0003F00264505930F8223023F4EC4323F086
:10198C0070031B041B0C43F4007320F8223040F648
:10199C000F730C7830F8242044F4004545F0800592
:1019AC001A402A4320F824208A7A0D78002A40F025
:1019BC0097804C788A88002C4AD0B0F85040520856
:1019CC00A4B204EBC50400EB44045200C4F8002498
:1019DC000C7830F82420520608D530F82420134017
:1019EC0043F4004343F0C00320F824300A7830F865
:1019FC00223023F4E04323F040031B041B0C83F040
:101A0C00200343F4004343F0800320F822300020ED
:101A1C0070BD30F8223023F4EC4323F070031B0428
:101A2C001B0CB2E730F8223023F4EC4323F07003A4
:101A3C001B041B0C43F4C063A7E730F8223023F4DB
:101A4C00EC4323F070031B041B0C43F480639CE7F2
:101A5C00B0F8503052089BB2043303EBC50352006C
:101A6C0000F5806444F81320B0F850200D6992B250
:101A7C000B7806323E2D02EBC30229D9C5F34F1663
:101A8C00EB0604BF06F1FF339EB26E4B43EA86238E
:101A9C009BB244F812300A7830F822305E040BD531
:101AAC0030F8223023F0F0031B051B0D43F44043A8
:101ABC0043F0800320F822300A7830F8223023F4E7
:101ACC00804323F070031B041B0C83F4405398E7F2
:101ADC00C5F34F03ED0744BF01339BB29B02D7E71D
:101AEC0030F8252022F4F8721205120D42F401424E
:101AFC0042F0800220F82520B0F850200C7892B2E9
:101B0C0002EBC402CC8800F580656408640045F8DB
:101B1C001240B0F850200C7892B2043202EBC4029E
:101B2C000C896408640045F812404A780C78002A45
:101B3C0047D130F82420550408D530F82420134020
:101B4C0043F4404343F0800320F824300A7830F803
:101B5C0022305C060BD530F8223023F0F0031B0545
:101B6C001B0D43F4004343F0C00320F822300A78E5
:101B7C0030F8223023F0F0031B051B0D43F4004317
:101B8C0043F0C00320F8223048F280020C7830F881
:101B9C00243023F4804323F070031B041B0C83F4C8
:101BAC004053134320F82430097830F8213023F4C3
:101BBC00E04323F040031B041B0C134320F821309B
:101BCC0025E730F82420520408D530F8242013409F
:101BDC0043F4404343F0800320F824300A7830F873
:101BEC0022305B060BD530F8223023F0F0031B05B6
:101BFC001B0D43F4004343F0C00320F822300A7855
:101C0C0030F8223023F0F0031B051B0D43F4404346
:101C1C0043F0800320F8223048F280020C7830F830
:101C2C00243023F4E04323F040031B041B0C134328
:101C3C0020F82430097830F8213023F4804323F045
:101C4C007003B8E70080FFFF10B58C7A4A780B78E8
:101C5C00CCBB02B330F8232052060BD530F823202E
:101C6C0022F0F0021205120D42F4004242F0C002C2
:101C7C0020F823200A7830F8223023F4E04323F0B4
:101C8C0040031B041B0C43F4004343F0800320F877
:101C9C002230002010BD30F8232054040BD530F82E
:101CAC00232022F0F0021205120D42F4404242F0C1
:101CBC00800220F823200A7830F8223023F4804365
:101CCC0023F07003DDE7002A48D130F823205204BA
:101CDC000BD530F8232022F0F0021205120D42F43D
:101CEC00404242F0800220F823200A7830F822305B
:101CFC005C060BD530F8223023F0F0031B051B0DCE
:101D0C0043F4004343F0C00320F822300A7830F843
:101D1C00223023F0F0031B051B0D43F4004343F06A
:101D2C00C00320F8223048F280020C7830F82430BE
:101D3C0023F4804323F070031B041B0C134320F883
:101D4C002430097830F8213023F4E04323F04003A9
:101D5C001B041B0C134320F821309AE730F8232086
:101D6C0052040BD530F8232022F0F0021205120D8C
:101D7C0042F4404242F0800220F823200A7830F8E6
:101D8C0022305B060BD530F8223023F0F0031B0514
:101D9C001B0D43F4004343F0C00320F822300A78B3
:101DAC0030F8223023F0F0031B051B0D43F44043A5
:101DBC0043F0800320F8223048F280020C7830F88F
:101DCC00243023F4E04323F040031B041B0C134387
:101DDC0020F82430097830F8213023F4804323F0A4
:101DEC007003B5E70A788AB9038823F4804323F09B
:101DFC0040031B041B0C83F4805383F0100343F447
:101E0C00004343F080030380002070474B7883B17C
:101E1C0030F8223023F4E04323F040031B041B0C66
:101E2C0083F0100343F4004343F0800320F8223086
:101E3C00EAE730F8223023F4804323F070031B04CC
:101E4C001B0C83F48053EDE74B780A7813B330F80E
:101E5C0022305B060BD530F8223023F0F0031B0543
:101E6C001B0D43F4004343F0C00320F822300A78E2
:101E7C0030F8223023F4E04323F040031B041B0C06
:101E8C0083F0300343F4004343F0800320F8223006
:101E9C000020704730F822305B040BD530F822302C
:101EAC0023F0F0031B051B0D43F4404343F0800368
:101EBC0020F822300A7830F8223023F4804323F0C3
:101ECC0070031B041B0C83F44053DBE711B9802314
:101EDC00A0F84C300020704700207047002070475D
:101EEC00B0F8440080B270470020704710B5002451
:101EFC00013300F580605B1000EB4202A34200D17D
:101F0C0010BD31F8020B22F824000134F6E7000072
:101F1C0070B50E468A694978054601293369B07A4D
:101F2C0066D19A421C469BBF00231446D21AB36159
:101F3C0088BFB261A3B210BBB28871692846FFF7A3
:101F4C00D5FFB5F8503032789BB2023303EBC203A5
:101F5C0005EB4303C3F80044327835F8223023F400
:101F6C00E04323F040031B041B0C83F0300343F4C9
:101F7C00004343F0800325F82230002070BD3278F6
:101F8C0035F82210D20011F0400FB5F8501089B27C
:101F9C001AD002310A4405EB4202C2F800443289DD
:101FAC0071692846FFF7A2FF737832789BB935F830
:101FBC00223023F0F0031B051B0D43F4004343F0C8
:101FCC00C00325F82230C7E70A4405EB4202C2F8E9
:101FDC000444F288E4E7012BBED135F8223023F01B
:101FEC00F0031B051B0D43F4404343F08003E8E76B
:101FFC009A4293BF0023D21AB261B36198BF1346C1
:10200C00327870BBB5F850103E2B89B201F1060145
:10201C0001EBC20105F5806018D9C3F34F12DB0642
:10202C0004BF02F1FF339AB2384B43EA82239BB2CE
:10203C0040F81130327835F8223023F4804323F005
:10204C0070031B041B0C83F4405390E7C3F34F0243
:10205C00DC0744BF013292B2920292B240F81120D6
:10206C00E8E7B9B9B5F850103E2B89B201F102017D
:10207C0001EBC20105F5806428D9C3F34F10DA06D1
:10208C0004BF00F1FF3290B2204A42EA802292B2A1
:10209C0044F81120727831785ABBB5F850203E2B99
:1020AC0092B202F1060202EBC10205F5806015D96D
:1020BC00C3F34F11DC0604BF01F1FF3399B2134B8C
:1020CC0043EA81239BB240F81230B3E7C3F34F02CB
:1020DC00D80744BF013292B29202D8E7C3F34F0142
:1020EC00DB0744BF013189B2890289B240F8121072
:1020FC00A0E7012A9ED1B5F8502092B2023202EB31
:10210C00C10205EB4202C2F8003493E70080FFFFE6
:10211C0010B50024013300F580605B1000EB420227
:10212C00A34200D110BD52F8240021F81400013450
:10213C00F6E7000022230380004870478C00002043
:10214C00D0F8183200201873704700000A2303805F
:10215C0000487047BC00002038B50C78054614F0D8
:10216C006004D0F8183223D0202C0CD14A78023AD3
:10217C00092A17D8DFE802F01309161616161616D8
:10218C000F058A781A60002410E0012219462846AF
:10219C0000F034FBF7E74A88120A5A60F3E7012291
:1021AC00191DF4E7284600F002FB0224204638BD36
:1021BC004A780A2A18D00B2A1CD0062AF6D14B884A
:1021CC001B0A222B05D1CA880C494A2A28BF4A224D
:1021DC00DDE7212B05D1CA880949092A28BF092224
:1021EC00D5E721462246D2E7012203F1080100F08F
:1021FC0005FBDBE78A789A60D8E700BF080000206F
:10220C00B000002010B50446812100F019FED4F86E
:10221C00180220B100F07CFE0023C4F81832002014
:10222C0010BD10B5042303228121044600F0F8FDF3
:10223C00102000F069FEC4F8180218B100230373D3
:10224C00184610BD012010BD08B580B1D0F814326D
:10225C0013B10023C0F8143209B1C0F810120123D5
:10226C00027080F8FC3100F095FD002008BD0220C2
:10227C0008BD19B1C0F81412002070470220704735
:10228C0008B500F0BFFD002008BD08B5D0F8143229
:10229C000BB9022008BD1B6898470028F9D108BD6E
:1022AC0008B5D0F814325B689847002008BD38B5E3
:1022BC0000F502750446284600F065FA012394F8EF
:1022CC000812C4F8F431B4F80E32C4F8F83101F045
:1022DC001F03012B0ED007D3022B10D001F080016D
:1022EC00204600F0BBFD03E02946204600F0D6F85E
:1022FC00002038BD2946204600F0CAF9F8E72946E7
:10230C00204600F0DDF9F3E738B50446154611BB5D
:10231C00D0F8F431032B0FD1D0F80C31D0F81021B8
:10232C0093420BD99B1A9A4228BF1A46C0F80C311B
:10233C0092B2294600F077FA002038BDD0F814325A
:10234C001B6923B190F8FC21032A00D19847204641
:10235C0000F071FAF0E7D0F814329B69002BEBD047
:10236C0090F8FC21032AE7D19847E5E770B51346AE
:10237C0004460E4600293DD1D0F8F421022A0FD193
:10238C00C569026A954214D9AA1AC261194692B259
:10239C0000F041FA33461A461946204600F0A6FDD5
:1023AC0094F80032012B02D1002384F80032002073
:1023BC0070BD8369B3FBF2F502FB153565B99A4222
:1023CC000AD8D0F8F821934206D22A4600F023FA14
:1023DC00C4F8F8512B46DEE7D4F81432DB682BB185
:1023EC0094F8FC21032A01D120469847204600F09E
:1023FC002DFAD5E7D0F814325B69002BD7D090F8C2
:10240C00FC21032AD3D19847D1E7002238B50446E2
:10241C0040251146402300F003FD2B46C4F8105113
:10242C0000228021204600F0FBFC012384F8FC31C3
:10243C00D4F8183225622BB1D4F8143221795B68A8
:10244C0020469847002038BD01740020704790F852
:10245C00FC3180F8FD31042380F8FC3100207047FA
:10246C0090F8FD3180F8FC310020704708B590F8E9
:10247C00FC21032A04D1D0F81432DB6903B198474C
:10248C00002008BD10B50446802100F0E7FC204672
:10249C00BDE81040002100F0E1BC000037B54B78DE
:1024AC0004460D46092B79D8DFE813F0C900E50086
:1024BC007800D90078006D000A007800B9008D0012
:1024CC004B881A0A013A062A68D8DFE802F0041C85
:1024DC00296767495200D0F810321B680DF10601CC
:1024EC00207C9847BDF80620002A67D0EB88002B8B
:1024FC0064D09A4228BF1A460146ADF80620204601
:10250C0000F07CF95AE0027CD0F8143232B99B6AA4
:10251C000DF10600984702234370E3E7DB6AF7E707
:10252C00DBB2052B3AD8DFE803F003070B0F1317C8
:10253C00D0F810325B68D1E7D0F810329B68CDE749
:10254C00D0F81032DB68C9E7D0F810321B69C5E748
:10255C00D0F810325B69C1E7D0F810329B69BDE747
:10256C00037CDBB9D0F814320DF106005B6B984795
:10257C00B8E7037C93B9D0F814320DF106001B6B4D
:10258C0098470723C8E78B8843B9CB8833B990F8B1
:10259C00FC318D78032B05F07F0503D12046FFF726
:1025AC0071FF0BE080F8FE51294600F083FC2046B9
:1025BC0000F041F92DB1022384F8FC31002003B066
:1025CC0030BD0123F8E78978304D01292970E5D811
:1025DC0090F8FC31022B0CD0032BDFD1B1B90223C4
:1025EC00416080F8FC31FFF75BFE204600F023F9D8
:1025FC00E4E70029F9D001210323416080F8FC3184
:10260C002046FFF742FE0228EFD1C7E741680129B7
:10261C00EBD0C9B2FFF744FE29786160F0E7CA88B5
:10262C00012ABBD190F8FC31022B03D0032BB5D17E
:10263C00011D64E70146002341F8083F5FE790F86D
:10264C00FC31023B012BA9D80123C360D0F8043222
:10265C000BB10323C360022204F10C014FE74B883A
:10266C00012BABD1C4F80432D4F8143229469B6840
:10267C0020469847B9E790F8FC31023B012B8DD8E6
:10268C004B88012B9AD10023ECE700BF1C010020E2
:10269C0038B590F8FC310446032B0D460DD10B795F
:1026AC00012B0AD8D0F814329B689847EB8813B9E1
:1026BC00204600F0C0F8002038BDFFF7E3FEFAE733
:1026CC0070B50A788E8802F06002202A04460D4606
:1026DC00F3B205D1D0F814329B689847002070BD36
:1026EC004A78012A1CD02AD3032AF7D190F8FC216E
:1026FC00022A40D0032A02D0FFF7C4FEEEE74A8834
:10270C0022B95E0602D0194600F0A8FBD4F81432A8
:10271C0029469B6820469847204600F08CF8DDE758
:10272C0090F8FC21022A26D0032AE5D14A88002AF7
:10273C00D4D15906F0D0194600F09EFBE6E790F88C
:10274C00FC21022A17D0032AD6D103F07F0516F0FC
:10275C00800F00EB0515194614BF143505F582756D
:10276C0000F098FB68B101232B6002222946204619
:10277C0000F044F8B2E75A06B0D0194600F06EFBF0
:10278C00ACE72860F1E70B7803704B784370CA789C
:10279C008B7803EB022343804A790B7903EB0223FA
:1027AC008380CA798B7903EB0223C380704710B501
:1027BC000446802100F052FB2046BDE81040002169
:1027CC0000F04CBB30B588B105462B1A15F8014BFF
:1027DC00DBB2002CF9D15B00023313800B700323A6
:1027EC004B700223013810F8015F05B930BD5A1C3B
:1027FC00CD54D2B20233DBB28C54F4E7134602222E
:10280C0010B5C0F8F42183610A46C361002100F0C1
:10281C005FFB002010BD08B513460A46002100F0EE
:10282C0057FB002008BD08B513460A46002100F0EE
:10283C005DFB002008BD08B50423C0F8F43100236B
:10284C001A46194600F044FB002008BD08B50523C4
:10285C00C0F8F43100231A46194600F047FB00205B
:10286C0008BD00002DE9F84300241A4D01262F461F
:10287C00A146DFF8648001220F211748FDF714FEF2
:10288C0006FA04F1002289B21348FDF70DFE01206F
:10289C00FDF79EFC0023D8F80820C2F30312D107E1
:1028AC004CBF05F80390EE540133042B4FEA52024F
:1028BC00F5D10134042C05F10405DCD10023FA5CBC
:1028CC00D8B2012A03D00133102BF8D1FF20BDE878
:1028DC00F88300BF1D0100200008014007B502A9C4
:1028EC0001F8040D4FF6FF7301220348FEF7A6FF13
:1028FC0003B05DF804FB00BF4C0100200368B3F18A
:10290C00804F04D14FF400510148FDF7D2BD704700
:10291C00001001404FF4803310B594B001220B939A
:10292C000021022412934FF4E0130AA80A920C918E
:10293C000E9211941393FEF7A3F900B1FEE70F2347
:10294C0005934FF4806307900990214605A80694DF
:10295C000893FEF75DFB00B1FEE71023049001A87D
:10296C000193FEF71FFC044600B1FEE7FEF7F4FBF3
:10297C004FF47A73B0FBF3F0FDF78EFC0420FDF7F7
:10298C00A1FC224621464FF0FF30FDF745FC14B068
:10299C0010BD0000F0B58BB0FDF7F6FB4C4A4D4B6B
:1029AC0000241A60FFF7B6FF4B4B4FF400519A69A5
:1029BC004A4842F010029A619A69012502F010020D
:1029CC000192019A9A69022642F020029A619A6950
:1029DC0002F020020292029A9A6942F004029A6171
:1029EC009B69002203F004030393039BFDF75CFD3A
:1029FC0000220F213A48FDF757FD4FF4005306A96A
:102A0C0036480693079508940996FDF76DFC0F233D
:102A1C000693112306A93248079308950996FDF7EA
:102A2C0063FCF02306A92E48069307940895FDF73E
:102A3C005BFC00F041F94FF4E1332A482A498460E9
:102A4C0080E80A000C23C460046143618461C461A2
:102A5C00FEF7C6FE00B1FEE740F2E7334FF08042CE
:102A6C00224C84E80C004FF46163E3608023A06087
:102A7C0020612046A361FEF7AFFD00B1FEE74FF4E5
:102A8C00805306A920460693FEF70FFC00B1FEE723
:102A9C000490059004A92046FEF7B8FD00B1FEE7AE
:102AAC00134D2046FEF7F6FB2E46124F0A20FDF77B
:102ABC008FFBFFF7D7FE2B780446834206D0FF2806
:102ACC0004D028700146384600F06EFB3470EDE7F8
:102ADC00E9280008540A00200010024000100140B0
:102AEC00000801404C010020003801408C010020FE
:102AFC00C60000208C320008FEE70000274B07B50B
:102B0C009A69032042F001029A619A6902F001026B
:102B1C000092009ADA6942F08052DA61DB6903F0C4
:102B2C0080530193019BFDF765FB00226FF00B00B6
:102B3C001146FDF771FB00226FF00A001146FDF7FC
:102B4C006BFB00226FF009001146FDF765FB0022BC
:102B5C006FF004001146FDF75FFB00226FF00300DD
:102B6C001146FDF759FB00226FF001001146FDF7ED
:102B7C0053FB00224FF0FF301146FDF74DFB084A86
:102B8C00536823F0E06343F000735360536823F001
:102B9C00E063536003B05DF804FB00BF001002401B
:102BAC0000000140036807B5B3F1804F12D103F563
:102BBC000433DA691C2042F00102DA610022DB697D
:102BCC00114603F001030193019BFDF725FB1C202B
:102BDC00FDF756FB03B05DF804FB00007FB50268FF
:102BEC00124B9A421FD103F558439A6902A942F439
:102BFC0080429A619B690E4803F480430193019BC8
:102C0C004FF4007302930223039303230593FDF700
:102C1C006BFB4FF480630293002302A904480393D7
:102C2C000493FDF761FB07B05DF804FB003801402D
:102C3C00000801407047FEE7FEE7FEE7FEE770473D
:102C4C007047704708B5FDF7B1FABDE80840FDF7CD
:102C5C0046BB00000148FDF737BD00BFF003002064
:102C6C000148FEF7DFBB00BF8C0100200F4B1A6838
:102C7C0042F001021A6059680D4A0A405A601A68FB
:102C8C0022F0847222F480321A601A6822F48022B4
:102C9C001A605A6822F4FE025A604FF41F029A60BE
:102CAC004FF00062034B9A60704700BF0010024067
:102CBC000000FFF800ED00E010B5074C00220749BA
:102CCC002046FFF7C1FA20460549FFF7D2FA204605
:102CDC00BDE81040FFF7D4BACC010020CC00002096
:102CEC005400002007B50D4B02689A4212D103F52F
:102CFC00DA33DA69142042F40002DA610022DB696B
:102D0C00114603F400030193019BFDF785FA14208F
:102D1C00FDF7B6FA03B05DF804FB00BF005C0040A1
:102D2C0000F22C41D0F85C04FFF7C1BA00EB411360
:102D3C00D3F83C22D0F85C04FFF7E6BA00EB411361
:102D4C00DA6BD0F85C04FFF711BBD0F85C04FFF72A
:102D5C008DBB10B504460121D0F85C04FFF774FB61
:102D6C00D4F85C04BDE81040FFF74FBB10B5044627
:102D7C00D0F85C04FFF76BFBA36923B1024A13691B
:102D8C0043F00603136110BD00ED00E0D0F85C04C5
:102D9C00FFF766BB10B5022308224FF0030E044662
:102DAC001549164880E80E400023C0F85C44C4F86E
:102DBC0020028361C3610362FDF77FFB20B14FF4F6
:102DCC0097710F48FFF798FE002218231146D4F88C
:102DDC002002FDF73DFF582300228021D4F8200269
:102DEC00FDF736FF4FF4807300228121D4F82002C6
:102DFC00FDF72EFF002010BD005C0040F00300200A
:102E0C00B532000808B5D0F82002FDF7BFFB032847
:102E1C009ABF024B185C022008BD00BFB1320008FB
:102E2C0010B51C46D0F8200213462246FDF7D9FBFC
:102E3C0003289ABF014B185C022010BDB132000868
:102E4C0008B5D0F82002FDF7EFFB03289ABF024B20
:102E5C00185C022008BD00BFB132000808B5D0F8DC
:102E6C002002FDF7A9FE03289ABF024B185C022032
:102E7C0008BD00BFB132000808B5D0F82002FDF73C
:102E8C00C4FE03289ABF024B185C022008BD00BF89
:102E9C00B13200080A06D0F8203245BF01F07F019C
:102EAC0003EB411303EB411393F82A0058BF93F83B
:102EBC002A02704708B5D0F82002FDF77EFB0328E4
:102ECC009ABF024B185C022008BD00BFB13200084B
:102EDC0008B5D0F82002FDF7E0FB03289ABF024B9F
:102EEC00185C022008BD00BFB132000808B5D0F84C
:102EFC002002FDF7BAFB03289ABF024B185C022094
:102F0C0008BD00BFB13200080048704730010020F6
:102F1C0070477047122301480B807047E80000206F
:102F2C00042301480B807047FC00002010B5044CB2
:102F3C000A4604482146FFF745FC204610BD00BF59
:102F4C0050080020E132000810B5044C0A46044831
:102F5C002146FFF737FC204610BD00BF500800206B
:102F6C00F432000810B5044C0A4604482146FFF719
:102F7C0029FC204610BD00BF500800200A33000871
:102F8C0010B5044C0A4604482146FFF71BFC2046AA
:102F9C0010BD00BF50080020C832000810B5044C0A
:102FAC000A4604482146FFF70DFC204610BD00BF21
:102FBC0050080020D33200080A2810B5044602D16C
:102FCC000D20FFF7F9FF074A13681BB1591C1C7041
:102FDC00116010BD044B1B681BB12046BDE81040AE
:102FEC00184710BD44010020540A002010B5441E9F
:102FFC0014F8010F00B910BDFFF7DEFFF8E72DE95B
:10300C00FF4702460D461078002800F0CA8025289C
:10301C0004D0571CFFF7D0FF2C4652E05378302BCE
:10302C0028D101269378D71C4FF000080A21A3F170
:10303C003002092A27D903F0DF024C2A02BF3B7861
:10304C0046F004060137002B00F0AB80602B92BFDA
:10305C001A46A3F12002D2B24F2A35D01AD8432AED
:10306C0000F08880442A00F08E80422A00F089808B
:10307C001846CFE72D2B19BF971C0026D71C937829
:10308C0008BF0226D0E701FB083817F8013BA8F16E
:10309C003008CCE7552A76D0582A70D0532AE7D17D
:1030AC00D5F800902C1D4B46A3EB090513F8012B0A
:1030BC00002AF9D1B00752D54846FFF797FFA8452B
:1030CC0053D825463A469EE70820442A296805F13C
:1030DC00040404D10029BCBF494246F00806782BF1
:1030EC000CBF4FF0270C4FF0070C0022B1FBF0FE89
:1030FC0000FB1E15EBB2092D84BF6344DBB23033E9
:10310C007146551C0DF80230BEF1000F02D0102D87
:10311C003BD10F22310705D504AB1D442D2305F8F7
:10312C00103C951C16F0010F14BF4FF0300A4FF0F5
:10313C00200AB307A9462ED5013D1DF80500FFF75F
:10314C003BFF002DF8D1C845BBD92020FFF734FF39
:10315C0009F10109F7E72020FFF72EFF3546454519
:10316C0005F10106F7D33546A6E72020FFF724FF2B
:10317C000135A4E728782C1DFFF71EFFA1E71020CE
:10318C00A3E70220A1E70A209FE72A46AEE75046B4
:10319C00FFF712FFB146C14509F10106F7D3B1465D
:1031AC00CAE704B0BDE8F0870FB407B504A951F81D
:1031BC00040B0191FFF723FF03B05DF804EB04B09F
:1031CC0070470000002103E00B4B5B584350043167
:1031DC000A480B4B42189A42F6D30A4A02E00023E3
:1031EC0042F8043B084B9A42F9D3FFF73FFD00F03D
:1031FC000FF8FFF7CFFB70472033000800000020CA
:10320C000001002000010020580A0020FEE7000009
:10321C0070B500250C4E0D4CA41BA410A54209D171
:10322C0000F01AF800250A4E0A4CA41BA410A54263
:10323C0005D170BD56F8253098470135EEE756F8A4
:10324C00253098470135F2E7183300081833000889
:10325C00183300081C330008F8B500BFF8BC08BCD4
:10326C009E467047F8B500BFF8BC08BC9E46704738
:10327C0002030405060708090A0B0C0D0E0F1010AB
:10328C0050757368204B65792025640A0000000096
:10329C0000000000000102030406070809000000FA
:1032AC000001020304000201022E2E5C5372635CC7
:1032BC00757362645F636F6E662E630048494420C9
:1032CC00436F6E6669670048494420496E746572A5
:1032DC00666163650053544D6963726F656C656319
:1032EC0074726F6E6963730053544D33322048759A
:1032FC006D616E20696E7465726661636500303055
:0C330C00303030303030303031410000C3
:043318003101000877
:04331C000D01000897
:10332000010000001000000005010902A1010901CF
:10333000A10005091901290315002501950375014F
:1033400081029501750581010501093009310938AE
:103350001581257F750895038106C0093C05FF0985
:10336000011500250175019502B12275069501B17F
:1033700001C000002F22000811220008652100086A
:1033800000000000000000004D21000800000000C7
:1033900000000000000000000000000041210008C3
:1033A000412100084121000859210008090222009A
:1033B000010100E0320904000001030102000921BB
:1033C00011010001224A000705810304000A0000E0
:1033D000092111010001224A000000000A06000232
:1033E000000000400100FF0000A24A04212F000855
:1033F0002D2F0008392F0008552F0008712F0008C5
:103400008D2F0008A92F00081201000200000040C3
:1034100083042B5700020102030100000403090486
:04000005080031D1ED
:00000001FF
